:020000040800F2
:10000000D8410020250200087D290008DD220008D3
:1000100059270008550700089D330008000000001C
:100020000000000000000000000000008D0100083A
:10003000CD07000800000000D1010008892C00084D
:100040003F0200083F0200083F0200083F0200088C
:100050003F0200083F0200083F020008D1070008E5
:100060003F0200083F0200083F0200083F0200086C
:100070005907000865070008710700087D07000898
:1000800089070008950700083F0200083F020008A2
:100090003F0200083F0200083F0200083F0200083C
:1000A0003F0200083F0200083F0200083F0200082C
:1000B0000D2D00083F020008A12D00083F02000896
:1000C0003F0200083F0200083F020008F92900082B
:1000D0003F020008D1320008DD3200083F0200086C
:1000E0003F0200083F0200083F02000800F002F84B
:1000F00000F03CF80AA090E8000C82448344AAF186
:100100000107DA4501D100F031F8AFF2090EBAE883
:100110000F0013F0010F18BFFB1A43F0010318473B
:10012000A8590000C8590000103A24BF78C878C107
:10013000FAD8520724BF30C830C144BF04680C60ED
:10014000704700000023002400250026103A28BF35
:1001500078C1FBD8520728BF30C148BF0B60704739
:10016000002070471FB51FBD10B510BD00F046FA46
:100170001146FFF7F7FF03F021FA00F064FA03B429
:10018000FFF7F2FF03BC03F044F90000224B1968AB
:100190000868B0E8F00F80F30988BFF36F8F4FF065
:1001A000000080F311884EF00D0E70470000000033
:1001B00006480068006880F3088862B661B6BFF33D
:1001C0004F8FBFF36F8F00DF00BF00BF08ED00E06F
:1001D000EFF30980BFF36F8F0F4B1A6820E9F00F20
:1001E000106008B54FF0500080F31188BFF34F8FB7
:1001F000BFF36F8F04F0B8F94FF0000080F311885F
:10020000BDE8084019680868B0E8F00F80F3098875
:10021000BFF36F8F704700BF48000020EFF30580E9
:10022000704700000948804709480047FEE7FEE79D
:10023000FEE7FEE7FEE7FEE7FEE7FEE7FEE7FEE796
:1002400004480549054A064B70470000092D00087F
:10025000ED000008D83B0020D8410020D83D002008
:10026000D83D0020704700000FB4044910B503AA20
:10027000029800F095F810BC5DF814FB34000020E3
:10028000032A40F2308010F0030C00F0158011F8C2
:10029000013BBCF1020F624498BF11F801CB00F89A
:1002A000013B38BF11F8013BA2F1040298BF00F8EE
:1002B00001CB38BF00F8013B11F0030300F0468189
:1002C000083AC0F0088051F8043B083A51F804CBD2
:1002D000A0E80810F5E7121D5CBF51F8043B40F898
:1002E000043BAFF30080D20724BF11F8013B11F8A3
:1002F00001CB48BF11F8012B24BF00F8013B00F8E7
:1003000001CB48BF00F8012B704702F0FF0343EA1E
:10031000032242EA024200F04DB94FF0000200B55C
:10032000134694469646203922BFA0E80C50A0E818
:100330000C50B1F12001BFF4F7AF090728BFA0E8C6
:100340000C5048BF0CC05DF804EB890028BF40F892
:10035000042B08BF704748BF20F8022B11F0804FD4
:1003600018BF00F8012B70477047704770477047FF
:1003700001694A1C02610878704700B58FB0CDE969
:1003800001310021059105497944CDE90310114659
:10039000684600F017F80FB000BD0000E5FFFFFF52
:1003A000074B70B50D467B44FFF7E7FF0446284630
:1003B00000F020F910B14FF0FF3070BD204670BD45
:1003C000FB3100002DE9F05F894604464FF0000A3A
:1003D000DFF874B1FB44C0F820A02046E1688847EC
:1003E000002874D0252806D0D4E901219047206A3E
:1003F000401C2062F1E700265F462046E1688847FE
:100400002028054607DB312D05D2781910F8200C7D
:1004100008B10643F1E7B00701D526F00406C4F899
:100420001CA00027C4F818A02A2D09D0284602F0E5
:10043000E9FF38B304EB8708303DC8F8185019E0DD
:1004400059F8041B204604EB87029161E168884754
:10045000012F054618D1E069002820DA26F0200691
:100460001DE0D8F8180000EB800005EB40003038A4
:10047000C8F818002046E1688847054602F0C2FF28
:100480000028EED1012F0AD02E2D08D12046E16898
:1004900088477F1C0546022F46F02006C4DBA06972
:1004A000002803DA404246F00106A061F00701D0BF
:1004B00026F010066C2D0BD0682D09D04C2D39D0AC
:1004C0006A2D35D0742D35D07A2D33D016E038E032
:1004D000E1682F4620468847B842054609D16C2F6F
:1004E00026D04FF48060E1680643204688470546E1
:1004F00004E06C2F1AD04FF4807006430DB3A5F1C1
:100500004100192802D8203546F400664A4629469B
:10051000204626604E46FFF723FE80B101280BD00F
:10052000F61D26F0070000F1080956E74020E4E731
:100530008020D8E70020D6E706F104094DE72846D9
:1005400052E7206ABDE8F09F4E56000010B5203AF1
:10055000C0F00B80B1E81850203AA0E81850B1E87C
:100560001850A0E81850BFF4F5AF5FEA027C24BF32
:10057000B1E81850A0E8185044BF18C918C0BDE829
:1005800010405FEA827C24BF51F8043B40F8043BF2
:1005900008BF7047D20728BF31F8023B48BF11F8A7
:1005A000012B28BF20F8023B48BF00F8012B704701
:1005B0004FF000020429C0F0128010F0030C3FF449
:1005C000AEAECCF1040CBCF1020F18BF00F8012B49
:1005D000A8BF20F8022BA1EB0C01FFF7A0BE5FEA39
:1005E000C17C24BF00F8012B00F8012B48BF00F8A4
:1005F000012B7047007B00F080007047754600F0CB
:100600002BF8AE4605006946534620F007008546A4
:1006100018B020B5FFF714FEBDE820404FF00006EB
:100620004FF000074FF000084FF0000B21F00701DA
:10063000AC46ACE8C009ACE8C009ACE8C009ACE81D
:10064000C0098D46704710B50446AFF300802046C0
:10065000BDE81040FFF793BD00487047743B002091
:100660004FF47A76304602F0C2FF03F065FD184F72
:10067000164CA7F12805164932464C39E06904F0BA
:10068000FDF9012806D013A0FFF7EEFD03F064FD8D
:1006900003F052FD0E484C3802F0ECFE0C484C388A
:1006A00002F03EFF391D284602F0B4FE022300226C
:1006B0000749A06A04F0ACF8012802D00EA0FFF7A9
:1006C000D3FD0A2002F093FFD5E7000000000020D0
:1006D000540100204144435F517565756548616E62
:1006E000646C6520526563656976652066616C732C
:1006F0006520210D0A000000416E616C6F67496E34
:1007000070757444617461517565756548616E6496
:100710006C65204F76657257726974652066616CEE
:100720007365210D0A00000070B5FF22FF23084DFC
:1007300005F5807605E010F8014B54402A5D5A40DB
:10074000335D491E89B2F6D242EA032000B270BD81
:1007500026580008FEE70000014800F0C7B8000076
:100760003C020020014800F0C1B8000080020020D7
:10077000014800F0BBB8000050040020014800F020
:10078000B5B800000C040020014800F0AFB800002C
:1007900094040020014800F0A9B80000D80400200B
:1007A00030B590F840500124AC40C56B6C600468D3
:1007B00063604368102B04D0036899600068C260CE
:1007C00030BD03689A600068C16030BD70470000AA
:1007D00010B502210A4800F0AFFA01280AD10948F1
:1007E0000168491C01600168252901D300210160CD
:1007F00003F0A2FCBDE81040022000F099B900000F
:10080000000C0140D000002072B6FEE710B590F851
:1008100021100022022905D00421816380F82020C4
:10082000012010BD01680B6823F00E030B60016806
:100830000B6823F001030B6090F84030C46B01217A
:1008400001FA03F3636080F8211080F8202010463D
:1008500010BD000010B5002490F82110022903D02B
:100860000421816301243DE001680A6822F00E0240
:100870000A6001680A6822F001020A601A4A0168E7
:10088000914201D1012121E0174A1432914201D154
:1008900010211BE0144A2832914201D1891515E03C
:1008A000114A3C32914201D189140FE00E4A503274
:1008B000914202D14FF4803108E00B4A64329142F8
:1008C00002D14FF4801101E04FF08071064A083ADE
:1008D0005160012180F82110002180F82010416B27
:1008E00001B18847204610BD080002402DE9F05FA5
:1008F000C16B0A6801680B68046C4FF0040A0AFABD
:1009000004FA4E4D4E4E4F4FDFF83CC1DFF83C81AC
:10091000DFF83C911AEA020F31D05FEA437A2ED514
:100920000A68920603D40A6822F004020A60016889
:10093000A94201D1042119E0B14201D1402115E0C1
:10094000B94202D14FF4806110E0614502D14FF409
:1009500080410BE0414502D14FF4802106E049453A
:1009600002D14FF4800101E04FF08061334A083A30
:100970005160C16A00295FD0BDE8F05F08474FF0C1
:10098000020E0EFA04FE1EEA020F4FF0000A4FF0AC
:10099000010B35D05FEA837E32D50A68920605D412
:1009A0000A6822F00A020A6080F821B00168A942B0
:1009B00001D1022119E0B14201D1202115E0B94253
:1009C00002D14FF4007110E0614502D14FF40051A3
:1009D0000BE0414502D14FF4003106E0494502D118
:1009E0004FF4001101E04FF00071144A083A5160D1
:1009F00080F820A0816A00291ED0BDE8F05F08477A
:100A00000825A540154217D01A0715D50A6822F007
:100A10000E020A6090F84010C26B0BFA01F15160AF
:100A2000C0F838B080F821B080F820A0016B002910
:100A300002D0BDE8F05F0847BDE8F09F0800024023
:100A40001C000240300002404400024058000240B6
:100A50006C00024030B5002827D0001D144A50F821
:100A6000041C14230A44B2FBF3F29200C263114A3D
:100A70008263022242770A6843F6F0739A43D0E910
:100A800000342343D0E902452C4323430469234324
:100A9000446923438469234313430B60002141636A
:100AA000012242770177002030BD012030BD0000D7
:100AB000F8FFFDBF0000024070B50446002594F821
:100AC000200001280CD0012084F8200094F8216037
:100AD0000020012E06D084F820000225284670BD93
:100AE000022070BD022684F82160A0632068066899
:100AF00026F0010606602046FFF752FEE06A28B1A4
:100B00002068016841F00E01016009E02068016879
:100B100021F0040101602068016841F00A010160D0
:100B20002068016841F001010160D7E770470000CB
:100B300010B504490A68024202D00860FFF7F6FFC8
:100B400010BD0000140401402DE9F84F00240023DB
:100B5000DFF8C4914FF00F08A9F1040B09F1040A62
:100B6000ABF1040ED1E00127A7403A40BA4275D15B
:100B7000DFF8A8C14D68A5EB0C0665452BD00DDC50
:100B8000032D34D005DC35B3012D19D0022D2FD122
:100B90001BE0112D16D0122D2AD119E0B6F5881FB1
:100BA00019D006DCB6F5803F15D0B6F5801F1FD1F1
:100BB00011E0B6F5001F0ED0B6F5041F18D10AE0FB
:100BC000CB6815E0CB681B1D12E0CB6808330FE043
:100BD000CB680C330CE08B6823B1012B04D00823C5
:100BE000476105E0042303E00823076100E00023D8
:100BF000FF2A01D8054601E000F1040502D84FEABA
:100C0000840603E0A4F108064FEA86062F6808FA76
:100C100006FC27EA0C0703FA06F647EA06072F60E8
:100C20004D68ED0070D53E4DAE6946F00106AE61EF
:100C3000AD6905F0010500953A4D24F003067719DA
:100C4000BE68A5072D0F08FA05FC26EA0C06DFF89A
:100C5000D8C0604503D14FF0000C17E054E0DFF836
:100C6000CCC0604502D14FF0010C0FE0DFF8C0C0EE
:100C7000604502D14FF0020C08E0DFF8B8C06045D3
:100C800002D14FF0030C01E04FF0040C0CFA05FC0C
:100C90004CEA060CC7F808C04D68ED0205D5D9F836
:100CA00000501543C9F8005004E0D9F800509543AE
:100CB000C9F800504D68AD0205D5DAF8005015436B
:100CC000CAF8005004E0DAF800509543CAF8005022
:100CD0004D68AD0305D5DBF800501543CBF8005047
:100CE00004E0DBF800509543CBF800504D68ED036D
:100CF00005D5DEF800501543CEF8005004E0DEF8CC
:100D000000509543CEF80050641C0A6832FA04F58E
:100D10007FF429AFBDE8F88F0804014000001110EE
:100D2000001002400000014000080140000C01409A
:100D300000100140001401408068084201D00120E9
:100D4000704700207047002A01D0016170470904F4
:100D5000016170470148806870470000380000203A
:100D600070B50446002C13D021684CF6CC400860C6
:100D7000216845F255500860D4E9001048602168A8
:100D8000A0688860FFF7E6FF054641F23C360CE0BC
:100D9000012070BDFFF7DEFF401BB04205D920687F
:100DA000C068800701D0032070BD2068C06880073C
:100DB000F0D121684AF6AA200860002070BD0068C2
:100DC0004AF6AA21016000207047000002488168AD
:100DD00002781144816070473800002010B5074840
:100DE000016841F010010160032000F0A7F80F2016
:100DF00000F006F800F050F8002010BD002002407E
:100E000030B587B005461F48C16941F00401C16192
:100E1000C06900F00400009001A902A800F052F996
:100E20000598B0B100F072F940001749B0FBF1F13C
:100E3000491E1748154A026040F2E732C26041601D
:100E4000002202618260826100F0F0FD04461CB164
:100E500015E000F05BF9E8E70D4800F029FE0446D4
:100E60006CB91E2000F03CF8102D07D20022294654
:100E70001E2000F043F80748056000E0012407B099
:100E8000204630BD0010024040420F0000080040E4
:100E90001C0500203C00002008B50F48816941F086
:100EA00001018161816901F001010091C16941F095
:100EB0008051C161C06900F08050009000220F2174
:100EC000901E00F01BF80549486820F0E06040F0F3
:100ED0000070486008BD00000010024000000140A2
:100EE000002809DB00F01F02012191404009800029
:100EF00000F1E020C0F8001170470000F0B40D468A
:100F00000D4B1B68C3F30223C3F10704042C00D963
:100F10000424191D072901D2002300E0DB1E01264D
:100F200006FA04F1491E294099409E40761E16405B
:100F30003143F0BC02F056BA0CED00E000F00701BE
:100F4000054A10684FF6FF03184040EA01200349A4
:100F500008431060704700000CED00E00000FA0547
:100F6000704700002DE9F04704460D46002C17D0CD
:100F7000DFF83081D8F8000000F00700A84211D255
:100F8000D8F8000020F007002843C8F80000D8F87F
:100F9000000000F00700A84204D00120BDE8F0875F
:100FA0000120FBE72068404E810712D5400703D59A
:100FB000706840F4E06070602078000703D57068C6
:100FC00040F4605070607068A16820F0F000084341
:100FD00070602078C0072CD06068012806D00228F5
:100FE00009D0316889070BD40120D7E7316889031C
:100FF00006D40120D2E73168890101D40120CDE770
:10100000716821F0030101437160FFF7A3FE0746F9
:1010100041F2883906E0FFF79DFEC01B484501D923
:101020000320BBE77068616800F00C00B0EB810F33
:10103000F1D1D8F8000000F00700A8420ED9D8F886
:10104000000020F007002843C8F80000D8F800008E
:1010500000F00700A84201D001209FE72078400758
:1010600005D57068E16820F4E0600843706020787E
:10107000000706D57068216920F4605040EAC1007D
:10108000706000F063F87168084AC1F30311515CA5
:10109000C8400749086007480068FFF7B1FE002014
:1010A0007CE7000000200240001002400E580008BB
:1010B000440000203C00002001490120C864704722
:1010C000000042420F2202600B4A536803F0030300
:1010D0004360536803F0F0038360536803F4E063F4
:1010E000C360526802F46052D2080261034800688B
:1010F00000F0070008607047001002400020024026
:1011000001480068704700004400002000B5FFF768
:10111000F7FF04494968044AC1F30221515CC84001
:1011200000BD0000001002401E58000800B5FFF787
:10113000E7FF04494968044AC1F3C221515CC84031
:1011400000BD0000001002401E5800080E4B5968F8
:101150000E4801F00C02042A11D0082A0FD10C48C5
:10116000C1F38342805CC9030AD55968084AC1F3B8
:101170004041921E515C054A5043B0FBF1F070476C
:1011800004494843704700000010024000127A00F2
:10119000FE57000800093D0010B5044CA068000689
:1011A00003D5FFF7DDFE8020A07210BD00100240C5
:1011B0002DE9F84F0446002C0ED02078D94DC007F9
:1011C0005ED06868C0F3810001280BD06868C0F366
:1011D0008100022803D00CE00120BDE8F88F686888
:1011E000C00306D5286880034AD56068A8BB0120E3
:1011F000F3E76068B0F5803F11D0A8B1B0F5A02F3B
:101200001BD0286820F480302860286820F48020D3
:101210002860606830B3FFF79DFD06461EE0286831
:1012200040F480302860F4E7286820F4803028609B
:10123000286820F480202860EBE7286840F48020AC
:101240002860286840F480302860E2E7FFF782FDDC
:10125000801B642802D90320BFE711E028688003BF
:10126000F4D50DE0FFF776FD064606E0FFF772FDC8
:10127000801B642801D90320AFE728688003F5D4D8
:101280002078DFF8A48280074FF0010A4FF00009B0
:1012900045D5686810F00C0F07D06868C0F381006E
:1012A000022812D16868C0030FD42868800704D5CB
:1012B0002069012801D001208FE72868616920F0AA
:1012C000F80040EAC100286029E02069B8B1C8F8F8
:1012D00000A0FFF73FFD064606E0FFF73BFD801B41
:1012E000022801D9032078E728688007F5D5286807
:1012F000616920F0F80040EAC10028600FE0C8F8FA
:101300000090FFF727FD064606E0FFF723FD801B50
:10131000022801D9032060E728688007F5D42078E7
:10132000000726D58148A16999B1C0F800A0FFF750
:1013300011FD064606E0FFF70DFD801B022801D9CE
:1013400003204AE7686A8007F5D5012001F01AFBFF
:101350000FE0C0F80090FFF7FDFC064606E0FFF73F
:10136000F9FC801B022801D9032036E7686A800750
:10137000F5D42078400773D50026E869C00008D46A
:10138000E86940F08050E861E86900F08050009022
:101390000126DFF89CB1DBF80000C00514D4DBF8AF
:1013A000000040F48070CBF80000FFF7D3FC074644
:1013B00006E0FFF7CFFCC01B642801D903200CE72F
:1013C000DBF80000C005F4D5E068012812D0B0B108
:1013D00005281DD0286A20F001002862286A20F024
:1013E00004002862E06841F2883B28B3FFF7B2FCB2
:1013F00007461DE0286A40F001002862F2E7286AEB
:1014000020F001002862286A20F004002862E9E741
:10141000286A40F004002862286A40F0010028622F
:10142000E0E7FFF797FCC01B584501D90320D4E63D
:10143000286A8007F5D50DE0FFF78CFC074606E02B
:10144000FFF788FCC01B584501D90320C5E6286A70
:101450008007F5D4012E03D1E86920F08050E861BF
:10146000E069A0B36968C1F38101022946D002286E
:1014700005D0C8F86090FFF76DFC04463AE0C8F864
:101480006090FFF767FC064606E0FFF763FC801BF1
:10149000022801D90320A0E628688001F5D4206A3B
:1014A000B0F5803F05D16868A16820F4003008439A
:1014B0006860D4E908010843696821F4741108439D
:1014C0006860C8F860A0FFF745FC044607E026E026
:1014D000FFF740FC001B022801D903207DE62868A5
:1014E0008001F5D51BE0FFF735FC001B022801D970
:1014F000032072E628688001F5D410E001280CD0A2
:101500006868226A00F48031914204D1616A00F473
:101510007010884203D001205FE601205DE60020C4
:101520005BE600000010024000004242800442429C
:10153000007000407047000038B5044620684268DB
:101540008168C9434B060AD5CB0708D1D3435B0654
:1015500005D4216C01B02046BDE8304008478B0718
:1015600008D4D3431B0605D4616C01B02046BDE806
:10157000304008478B0601D54B064AD4D3439B061F
:1015800047D44B060AD494F85130032B42D0636DF4
:1015900043F004036365C36883680093890609D434
:1015A000616D41F00101616581680091016821F080
:1015B00040010160606D00282BD02068416821F057
:1015C000E0014160012084F8510002F0020002F0C5
:1015D0000101084322D02068416821F003014160E5
:1015E000104DE06C40B14563E06CFFF733F918B182
:1015F000606D40F040006065A06C002809D0456334
:10160000A06CFFF727F9002803D0606D40F0400080
:10161000606538BDC1688068009038BD2046FFF71E
:1016200089FF38BD052A000870B50446002C09D092
:10163000606A002540B125616561A56294F851009A
:1016400040B10CE0012070BD6068B0F5827FF4D03D
:10165000E561F2E784F85050204600F03FF80220A0
:1016600084F851002068016821F040010160A088E1
:10167000218900F4827001F404410843A18901F436
:1016800000610843217C01F002010843217D01F043
:1016900001010843218B01F400710843217F01F00F
:1016A0003801084394F8201001F080010843218D8F
:1016B00001F40051084321680860A069042101EA8F
:1016C0001040216848602068C16921F40061C1614F
:1016D0006565012084F85100002070BD2DE9F041BE
:1016E00086B00446002502950395049505952F497B
:1016F0002068884257D12E48816941F48051816128
:10170000816901F480510191816941F00401816195
:10171000806900F004000190A02002900220039054
:1017200003200590234E02A93046FFF70DFA402012
:1017300002900395049502A93046FFF705FA1F4E63
:101740001D4830607560B5608027F7603561756150
:10175000B5614FF40058C6F81C803046FFF77AF99F
:1017600008B1FFF751F8E66474621348134E143061
:101770004436306010207060B560F7603561756187
:10178000B561C6F81C803046FFF764F908B1FFF771
:101790003BF8A6647462002205212320FFF7AEFB0C
:1017A0002320FFF79DFB06B0BDE8F081003001402B
:1017B00000100240000801401C0002403C020020D2
:1017C0007047704770B5044694F851006568012869
:1017D00008D0B5F5827F03D1A5680DB9042801D0E2
:1017E000022070BDC1B3BAB3B3B394F8500001285E
:1017F00035D0012084F8500094F85100042802D01C
:10180000052084F85100002565652163A386E386E1
:10181000A263A387E3872564656494F851000428D4
:101820001FD0E16C2C48C862E16C2C488862E16CE6
:101830002B480863E06C4563E38F2168A26B0C3191
:10184000E06CFFF739F998B1606D40F01000606509
:1018500084F85050012070BDFFE70120FBE7022013
:10186000F9E7E16C1F48C862E16C1F488862DEE757
:101870002068416841F001014160A06CC562A06C24
:101880008562A06C0563A06C4563E38E2268216BC2
:101890000C32A06CFFF710F938B1606D40F0100009
:1018A000606584F850500120D5E72068016849063A
:1018B00003D4016841F04001016084F85050206871
:1018C000416841F0200141602068416841F0020117
:1018D00041600020BFE70000412A0008B72A000845
:1018E000152A0008372A00084B2A000838B50021BD
:1018F0000091214988423ED1012210211F48FFF763
:1019000022FA1F48016891B11E494A78097842EAD3
:1019100001231D490268521E21F812300268521E2E
:1019200031F8122013090268521E21F8123050219A
:10193000EFF3118481F31188BFF34F8FBFF36F8FE3
:10194000006824280BD3114802236A460E49006818
:1019500003F024F8012802D00DA0FEF785FC84F3E3
:1019600011880098012806D1134900070860BFF3C9
:101970004F8FBFF36F8F38BDE40100200008014096
:10198000D0000020CA0000203C3A00201C000020AB
:101990004144435F517565756548616E646C6520AF
:1019A0004F76657277726974654953522046616C4F
:1019B000736520210D0A000004ED00E070477047B8
:1019C0007047000070B590F83C20012A25D0012610
:1019D00080F83C60022280F83D20026854689368D9
:1019E00024F070050C682C4354600D4C0268A24230
:1019F00008D0B2F1804F05D00A4CA24202D00A4C66
:101A0000A24204D123F080034968194391603C301D
:101A1000467000210170002070BD022070BD0000E2
:101A2000002C0140000400400008004010B50446AE
:101A3000002C03D094F83D0010B107E0012010BD48
:101A4000002084F83C00204600F016F8022084F8BC
:101A50003D00211D206801F0A9F901203D3460728C
:101A60006070A070E07020716071A071E0712072F0
:101A70002070002010BD000008B50068B0F1804F54
:101A800012D10A48C16941F00101C161C06900F089
:101A900001000090002206211C20FFF72FFABDE86C
:101AA00008401C20FFF71CBA08BD000000100240CF
:101AB00090F83D10012901D001207047022180F8E3
:101AC0003D100168CA6842F00102CA6000680E4910
:101AD000884208D0B0F1804F05D00C49884202D02E
:101AE0000B49884209D1816801F00701062908D015
:101AF000016841F00101016003E0016841F001016A
:101B00000160002070470000002C014000040040EC
:101B1000000800400168CA6822F00102CA6001683A
:101B20000A6A41F211131A4207D10A6A9B101A423B
:101B300003D10A6822F001020A60012180F83D10F9
:101B40000020704770B50446002594F83C00012839
:101B500017D0012684F83C60022084F83D002068FC
:101B6000826822F0770222F47F428260086850285F
:101B700038D00DDC202853D005DC90B3102811D1CB
:101B80004EE0022070BD30284AD040280AD13DE006
:101B9000602831D070280CD0B0F5805F03D0B0F54C
:101BA000005F12D001253C3466700020207028466A
:101BB00070BDCB68D1E90121206801F033F92068BC
:101BC000816841F077018160EDE7CB68D1E90121BF
:101BD000206801F027F92068816841F48041816024
:101BE000E1E71DE0CA684968206801F02DF950213D
:101BF000206801F021F9D6E7CA684968206801F039
:101C000034F96021206801F017F9CCE7CA68496807
:101C1000206801F019F94021206801F00DF9C2E7B0
:101C200022680146104601F007F9BCE770472DE92C
:101C3000F04104462068C56806694FF00007B10707
:101C400014D5A90712D5F91E01610120207720685B
:101C50008069800703D02046FFF7E8FF05E02046B3
:101C600000F081F8204600F07FF82777700717D53D
:101C7000680715D521686FF00400086102202077FD
:101C80002068806910F4407F03D02046FFF7CEFF24
:101C900005E0204600F067F8204600F065F8277759
:101CA000300716D5280714D521686FF008000861A1
:101CB000042020772068C069800703D02046FFF702
:101CC000B5FF05E0204600F04EF8204600F04CF845
:101CD0002777F00617D5E80615D521686FF01000B4
:101CE0000861082020772068C06910F4407F03D085
:101CF0002046FFF79BFF05E0204600F034F8204621
:101D000000F032F82777F00708D0E80706D02168FE
:101D10006FF001000861204600F028F8300608D571
:101D2000280606D521686FF0800008612046FFF77D
:101D300046FE700608D5680606D521686FF040009B
:101D40000861204600F01CF8B0060AD5A80608D5A0
:101D500021686FF0200008612046BDE8F041FFF7E0
:101D60002FBEBDE8F081704770470000006803494E
:101D7000884201D1FFF72AB87047000000080040F0
:101D80007047704710B5044620684069C0F3C01022
:101D900094F84110212911D180B12068143050E805
:101DA000001F21F0800140E80012002AF5D1A06B4D
:101DB00008B1FEF72BFD204601F042F9206840698A
:101DC000C0F3801094F84210222911D180B120680C
:101DD000143050E8001F21F0400140E80012002AB2
:101DE000F5D1E06B08B1FEF711FD204601F0F4F8E3
:101DF000002010BD70470000F8B504462268106846
:101E0000D168536900F00F06002E08D1850606D56B
:101E10008D0604D52046BDE8F84001F01FB9002525
:101E2000002E66D003F0010601F49077374360D0AE
:101E3000C20705D0CA0503D5626C42F00102626494
:101E4000420705D5DA0703D0626C42F002026264F1
:101E5000820705D5DA0703D0626C42F0040262649F
:101E6000020707D501F02002324303D0626C42F032
:101E700008026264626C002A31D0800604D58806AC
:101E800002D5204601F0EAF820684069C0F38010CE
:101E9000616C090700D438B3204601F09DF8206832
:101EA000406940061CD52068143050E8001F21F01E
:101EB000400140E80012002AF5D1E06B60B15949B9
:101EC0004163E06BFEF7C6FC002808D0E06B416B75
:101ED00001B0BDE8F04008472046FFF78BFFF8BD92
:101EE0002046FFF787FFF8BD2046FFF783FF6564B4
:101EF000F8BD236B012B7DD1C3067BD5CB067ED5E8
:101F000010685068009050694FF0200340064FF071
:101F1000020643D5E16B0868406880B20028E7D02C
:101F2000A28D8242E4D9E085886920282DD02068DE
:101F30000C3050E8001F21F4807140E80012002AA4
:101F4000F5D12068143050E8001F21F0010140E86D
:101F50000012002AF5D12068143050E8001F21F04B
:101F6000400140E80012002AF5D184F84230256390
:101F700020680C3050E8001F21F0100140E80012EA
:101F8000002AF5D1E06BFEF741FC6663A08DE18D80
:101F9000401A81B22046FFF7F4FEF8BDA08DE18D16
:101FA000401A81B2E08D0028F7D00029F5D02068D2
:101FB0000C3050E8002F22F4907240E80027002FE8
:101FC000F5D12068143050E8002F22F0010240E8DB
:101FD0000027002FF5D184F84230256320680C30AB
:101FE00050E8002F22F0100240E80023002BF5D12A
:101FF000666300E003E02046FFF7C3FEF8BD02067B
:1020000006D50A0604D52046BDE8F84001F030B9EF
:102010004006F3D54806F1D52046BDE8F84001F06A
:1020200002B800008F2E000870B50446002C04D0C2
:1020300094F84100002510B106E0012070BD84F83D
:102040004050204600F024F8242084F84100206805
:10205000C16821F40051C160204601F063F8206896
:10206000016921F4904101612068416921F02A0150
:1020700041612068C16841F40051C160656420205D
:1020800084F8410084F842006563002070BD0000C0
:102090002DE9F04385B0044600250195029503958E
:1020A0000495DFF880C121685F48022203235F4E58
:1020B00080274FF010094FF48058614553D1816952
:1020C00041F480418161816901F48041009181691D
:1020D00041F004018161806900F004000090100269
:1020E00001900292049301A93046FEF72DFD3015B0
:1020F00001900295039501A93046FEF725FD4D4E4E
:102100004B4830607560B560F76035617561B561E9
:10211000C6F81C803046FEF79DFC08B1FEF774FB44
:10212000E66374624248434E143844363060C6F861
:102130000490B560F76035617561B561C6F81C80C3
:102140003046FEF787FC08B1FEF75EFBA6637462BB
:10215000002205212520FEF7D1FE2520FEF7C0FE36
:1021600005B0BDE8F083DFF8D0C06145F8D1C169A2
:1021700041F40031C161C16901F40031009181690C
:1021800041F004018161806900F0040000900420A6
:1021900001900292049301A93046FEF7D5FC082075
:1021A00001900295039501A93046FEF7CDFC204829
:1021B000204E1430883630607560B560F760356148
:1021C0007561B561C6F81C803046FEF743FC08B166
:1021D000FEF71AFBE66374621548164E2830CC36BB
:1021E0003060C6F80490B560F76035617561B5611F
:1021F000C6F81C803046FEF72DFC08B1FEF704FB44
:10220000A6637462002205212620FEF777FE2620B1
:10221000FEF766FE074848380068C16841F01001C3
:10222000C1609DE7003801400010024000080140F5
:10223000580002400C0400200044004090F8423056
:10224000202B01D00220704721B11AB10023036373
:1022500000F0C4BF012070477047704737B504468F
:1022600094F84100202801D002203EBD019959B3C5
:1022700052B32162A284E28400206064212384F8A6
:102280004130A56B114BAB62A56B114BEB62A56B9B
:10229000104B2B63A36B586320681346001DA56B7E
:1022A00002462846FEF708FC21686FF040000860EF
:1022B0002068143050E8001F41F0800140E800120F
:1022C000002AF5D100203EBD01203EBD8D2F000823
:1022D000CF2F00089F2E000870477047FEE70000D0
:1022E0001CB5204E4FF0FF35A6F12C04294620687E
:1022F00002F062FC636A98421CD12A4619491846CA
:1023000002F0BCFB3078032802D0062809D025E073
:10231000E06A0090218EADF80410019900F01EFAD9
:102320001CE0E06A0090218EADF80410019900F0E5
:102330004FFA13E0A36A984210D12A460A49184678
:1023400002F09CFB0020084B084903EB80029288B6
:1023500021F81020401CC0B20928F6D3012001F05A
:1023600046F9C3E72C000020B0010020603B0020AC
:102370000348FEF724FDC82001F039F9F8E7000012
:10238000D801002008B51D48416941F001014161B3
:10239000406900F001000090002205210C20FEF7AA
:1023A000ADFD0C20FEF79CFD002205210D20FEF75F
:1023B000A5FD0D20FEF794FD002205210E20FEF75D
:1023C0009DFD0E20FEF78CFD002205210F20FEF75B
:1023D00095FD0F20FEF784FD002205211020FEF759
:1023E0008DFD1020FEF77CFD002205211120FEF757
:1023F00085FDBDE808401120FEF772BD00100240C7
:1024000010B50B2002F061F92E4C206010B92EA0FF
:10241000FDF72AFF354A4A21012001F027F9E06142
:10242000324A33211832102001F020F920622F4A5D
:10243000062130320A2001F019F960622B4A282166
:102440004832012001F012F9A0622168606A02F0AE
:1024500029F9012802D026A0FDF706FF2168A06A0D
:1024600002F020F9012802D02CA0FDF7FDFE1F4A42
:102470000021D83A354801F037F960601B4A002145
:10248000B43A334801F030F9A060184A0021903A7C
:10249000304801F029F9E060144A00216C3A2E48D6
:1024A00001F022F92061114A0021483A2B4801F03D
:1024B0001BF960610D4A0021243A294801F014F902
:1024C000A06110BD000000205175657565536574ED
:1024D0005F48616E646C6520437265617465204677
:1024E000616C736520210D0A000000009C570008F4
:1024F0004D6F646275734F6E655265675F517565A8
:10250000756548616E646C6520416464546F536501
:10251000742046616C7365210D0A0000416E616C88
:102520006F67496E70757444617461517565756546
:1025300048616E646C6520416464546F5365742017
:1025400046616C7365210D0A00000000812C0008B3
:10255000A92900086106000871230008A1330008BA
:10256000E122000870B586B000240294039404941C
:1025700005942348816941F020018161816901F05E
:1025800020010191816941F004018161816901F0BB
:1025900004010191816941F008018161806900F0C5
:1025A00008000190174E01224FF488713046FEF763
:1025B000CAFB102002900125039504940320059086
:1025C00002A93046FEF7C0FA022002900E4803909E
:1025D000049502A90D48FEF7B7FA28020290039568
:1025E0000494059502A93046FEF7AEFA07210022B1
:1025F0000846FEF783FC0720FEF772FC06B070BDAC
:10260000001002400008014000001110000C0140C1
:1026100010B50948074901600021416040F6FF718B
:102620008160FEF79DFB002803D0BDE81040FEF757
:10263000EBB810BD00300040D801002010B51048A4
:102640000E4901604FF48271416000218160C160D8
:10265000016141614FF4007282612022C261016216
:10266000416281620A21C162FEF7DEFF002803D0C9
:10267000BDE81040FEF7C8B810BD000000300140B2
:10268000E401002010B586B0002402940394049461
:1026900005940094019413484FF080410160472154
:1026A000416084606321C16004618461FFF7BEF909
:1026B00008B1FEF7A9F84FF48050029002A909482A
:1026C000FFF740FA08B1FEF79FF8009401946946BD
:1026D0000448FFF777F9002801D0FEF795F806B017
:1026E00010BD0000C402002010B50C480A4901606A
:1026F0004FF4E131416000218160C16001610C2231
:1027000042618161C161FFF78FFC002803D0BDE801
:102710001040FEF779B810BD003801407C0300205E
:1027200010B50C480A4901604FF4E13141600021C5
:102730008160C16001610C2242618161C161FFF76A
:1027400073FC002803D0BDE81040FEF75DB810BD53
:1027500000440040C4030020FEE700002DE9F341DF
:102760000020184D0121A9709DF80010E970BDF8F6
:10277000044061002971144BBDF8026009E0311872
:1027800005EB400233F811100F0A57719171401C8C
:10279000C0B28442F3D8032000EB440081B2A81CED
:1027A000FDF7C2FF05EB44025071000A907105204D
:1027B00000EB440002B0A91CBDE8F04182B203481E
:1027C000FFF74CBD48030020603B0020C4030020FD
:1027D00013B5114ABDF80200BDF8041022F810101C
:1027E0000E4C0122A2709DF80020E270020A2271B4
:1027F0006071080AA071E1710621A01CFDF794FF29
:102800002072000A6072082202B0A11CBDE81040CC
:102810000348FFF723BD0000603B00204803002071
:10282000C40300202DE9F04104460E46002520781F
:10283000012866D1B01E81B22046FDF775FF81B236
:10284000A01910F8022D407842EA0020814200D001
:102850000425E078A17840EA0120082800D9022563
:102860004DB96178284B294E03291DD0062933D054
:10287000102944D00125002D43D0234E2078B61FC7
:102880003070607840F080007070B5700321304681
:10289000FDF74AFFF070000A30713146BDE8F041A3
:1028A00005221B48FFF7DABC6279277942EA072242
:1028B0008718092F0ED8197058809A8000230A2291
:1028C0001149306801F0A4FF0128D4D011A0FDF710
:1028D000CBFCD0E70325CEE76279277942EA0722CD
:1028E000197058809A8000230A220749306801F045
:1028F0008FFF0128BFD014A0FDF7B6FCBBE7012570
:10290000B9E7BDE8F08100000001002024000020AC
:10291000C40300204572723A204D6F646275734F94
:102920006E655265675F517565756548616E646C6B
:10293000652053656E642030783033204661696CC1
:102940006520210D0A0000004572723A204D6F6427
:102950006275734F6E655265675F51756575654841
:10296000616E646C652053656E642030783036206B
:102970004661696C6520210D0A000000FEF70CFC21
:10298000FEE7000008B507494FF4FA520968B1FBA9
:10299000F2F14143009100BF0098411E0091FAD22C
:1029A00008BD000044000020124C4FF480754FF425
:1029B0004876002229462046FEF7C5F9322000F06D
:1029C00016FE012229462046FEF7BDF9322000F00E
:1029D0000EFE002229462046FEF7B5F9322000F00F
:1029E00006FE012229462046FEF7ADF9304600F0EA
:1029F000FEFDDEE7000801400148FEF79DBD000036
:102A0000E401002010B5406A0021C187C186FEF7AD
:102A100091FD10BD10B5406A01684A6822F00302BA
:102A20004A60416D41F010014165012180F851106B
:102A3000FEF780FD10BD10B5406AFEF7C2FE10BD66
:102A400010B5406AFEF7BAFF10BD70B505466C6A56
:102A5000FEF780F9024628680068800627D42068BF
:102A6000416821F020014160A06818B96068B0F5A4
:102A7000827F16D02068416821F001014160642105
:102A8000204600F045F808B1202060650020E0876E
:102A9000012084F85100606D48B12046FEF74AFDE0
:102AA00070BD2068416821F003014160E7E72046DE
:102AB000FEF786FE70BD70B505466C6AFEF74AF9F2
:102AC00002462868006880061ED42068416821F00C
:102AD000200141606421204600F052F818B1606D79
:102AE00040F0200060652068416821F003014160EA
:102AF0000020E086E087012084F85100606D18B165
:102B00002046FEF717FD70BD2046FEF7EFFE70BDB4
:102B1000F8B504464FF4827560684FF48063A842AC
:102B20000AD1A068B0F5004F01D0984204D12068C6
:102B3000066826F0400606606068A84210D1A068CA
:102B400098420DD10B46009200220121204600F050
:102B500039F898B1606D40F0200060650320F8BD41
:102B60000B46009200228021204600F02BF828B16D
:102B7000606D40F0200060650320F8BD0020F8BDC6
:102B8000F8B504460E46154633460122022120467A
:102B9000009500F017F828B1606D40F020006065E6
:102BA0000320F8BD3346002280212046009500F026
:102BB00009F828B1606D40F0200060650320F8BD81
:102BC0000020F8BD2DE9F84304460F4691461E4605
:102BD000089DFEF7BFF8401B351AFEF7BBF880468C
:102BE00026480068C0F3CB30684300903AE0701C80
:102BF00038D0FEF7AFF8A0EB0800A84203D215B119
:102C0000009858B32BE02068416821F0E001416052
:102C10006068B0F5827F0BD1A068B0F5004F02D09C
:102C2000B0F5806F04D12068016821F04001016097
:102C3000A06AB0F5005F09D12068016821F4005155
:102C400001602068016841F40051016001205034A6
:102C50006070002020700320BDE8F88300250098F4
:102C6000401E00902068806837EA000004D00020F1
:102C70004845BCD10020EFE70120F9E744000020DF
:102C8000012000F0B4FCFBE710B54FF0E020006934
:102C900002F03AF8012803D0BDE8104001F0ECBC86
:102CA00010BD30B58FB0282105A8FDF736FB1421E3
:102CB0006846FDF732FB092005904FF480310691FC
:102CC00000240794012009900B9002250C950D918A
:102CD0004FF4E0100E9005A8FEF76AFA08B1FDF770
:102CE00093FD0F200090019502944FF480600390B3
:102CF000049402216846FEF735F908B1FDF784FD1A
:102D0000FEF7DAF90FB030BD7047000010B5154876
:102D100000680069C043C0071BD15020EFF3118445
:102D200080F31188BFF34F8FBFF36F8F0F490E48A9
:102D30000968405C0E4940F00C00087002230D4AFF
:102D40000D48FEF73FFD10B10CA0FDF78DFA84F39E
:102D500011880448FEF76BFFBDE810400148FEF7FC
:102D6000D9BE0000C4020020D4000020D000002002
:102D7000C8000020CA000020E401002073706931FF
:102D80005F646D615F5472616E736D6974526563E7
:102D9000656976655F66616C736520210D0A0000C8
:102DA0000148FEF744BF00001C050020F0B5026892
:102DB000194C1A4D1A4E4FF08047A04205D0B84228
:102DC00003D0A84201D0B04203D122F070034A6878
:102DD0001A43A04205D0B84203D0A84201D0B04265
:102DE00003D122F44073CA681A434B6922F080026F
:102DF0001A4302608A68C2620A688262A04201D1F4
:102E000009690163012141610169C90703D00169B1
:102E100021F001010161F0BD002C014000040040DF
:102E20000008004010B5846824F47F4442EA03227D
:102E30000A432243826010BD826822F070020A4376
:102E400042F007018160704710B5036A046A24F0FC
:102E500001040462846924F0F00444EA021423F0BB
:102E60000A020A438461026210BD10B5036A046A53
:102E700024F010040462846924F4704444EA0232A9
:102E800023F0A00343EA01118261016210BD10B575
:102E9000406A0021C185C184FEF7ACFF10BD70B54A
:102EA000446A20684069C0F3C01094F841100025BE
:102EB000212904D118B1E584204600F0C1F820682A
:102EC0004069C0F3801094F84210222904D118B14F
:102ED000E585204600F080F8606C40F010006064EA
:102EE0002046FEF787FF70BD10B50146486A0968A5
:102EF00009684FF0000389062ED4C38501680C31A0
:102F000051E8002F22F4807241E80024002CF5D112
:102F10000168143151E8002F22F0010241E8002439
:102F2000002CF5D10168143151E8002F22F0400245
:102F300041E80024002CF5D1202180F84210016BDB
:102F4000012909D101680C3151E8002F22F010024B
:102F500041E80024002CF5D14363016B012902D024
:102F6000FFF77AF910BD818DFEF70BFF10BD10B58C
:102F7000406A01214163016B012902D0FFF76DF91D
:102F800010BD818D4908FEF7FCFE10BD10B501464D
:102F9000486A09680968890616D40021C184016855
:102FA000143151E8002F22F0800241E80023002B69
:102FB000F5D101680C3151E8002F42F0400241E8A0
:102FC0000023002BF5D110BDFFF786F910BD10B519
:102FD000406AFFF782F910BD01680C3151E8002FFB
:102FE00022F4907241E80023002BF5D101681431DE
:102FF00051E8002F22F0010241E80023002BF5D117
:10300000016B012909D101680C3151E8002F22F030
:10301000100241E80023002BF5D1202180F8421056
:1030200000210163704710B50168CA6822F04002B0
:10303000CA60202180F84110FFF74EF9002010BD32
:1030400001680C3151E8002F22F0C00241E8002352
:10305000002BF5D1202180F84110704708B590F879
:103060004210222901D0022008BD82684FF480530B
:103070009A4201D1016921B1816A9A421DD052B1AF
:103080000BE0816A02685268C2F308020A80816A12
:10309000891C816209E002697AB10268526802F013
:1030A0007F020A70816A491C8162C18D491E090430
:1030B000090CC18505D0002008BD026852680A705D
:1030C000F0E70168CA6822F02002CA600168CA6895
:1030D00022F48072CA6001684A6922F001024A61E2
:1030E000202180F8421000214163026B012A03D0A5
:1030F000FFF7B2F8002008BD016301680C3151E808
:10310000002F22F0100241E80023002BF5D10168C6
:103110000A68D20602D50A6849680091818DFEF7D7
:1031200030FEE7E770B5044620680169E26821F4E3
:10313000405111430161A168206901436069014365
:103140002068C26841F20C639A430A43C260206857
:103150004169A26921F44071114341611E4920680F
:10316000884202D1FDF7E2FF01E0FDF7CFFF00EB5F
:10317000C00101EB0010616864228900B0FBF1F32B
:10318000B3FBF2F36FF018067343B0FBF1F5B0FB3D
:10319000F1F605EB8305322303EB0515B5FBF2F5DC
:1031A000B6FBF2F605F0F00505EB0615B0FBF1F6FF
:1031B000B0FBF1F0B0FBF2F06FF01801484306EB02
:1031C000800003EB0010B0FBF2F0216800F00F006C
:1031D0002844886070BD00000038014037B582B0D7
:1031E00004461346039AA262A3850020606422214C
:1031F00084F84210E56B1B49A962E56B1A49E96244
:10320000E56B1A492963E16B48632168E06B091D8E
:10321000FDF752FC2068016840680190206948B1C0
:1032200020680C3050E8001F41F4807140E8001223
:10323000002AF5D12068143050E8001F41F0010148
:1032400040E80012002AF5D12068143050E8001F31
:1032500041F0400140E80012002AF5D105B00020FD
:1032600030BD0000E92E00086F2F00089F2E0008D7
:1032700090F84110212901D0022070478168B1F5F2
:10328000805F01D1016961B1016A4A1C0262026872
:1032900009785160C18C491E0904090CC1840AD007
:1032A00013E0016A02680988C1F308015160016AEC
:1032B000891C0162EEE70168CA6822F08002CA60D8
:1032C0000068C16841F04001C16000207047000003
:1032D0000148FEF791BD00007C0300207CB5002072
:1032E00001901F48006801681E4DC943C90623D4D8
:1032F0000168406800901A48FEF744FD1A480068CB
:103300004068C0B2C0F1320028705020EFF3118441
:1033100080F31188BFF34F8FBFF36F8F13480023E3
:1033200001AA1049006801F039FB012802D010A061
:10333000FCF79AFF84F311880948FEF75DFD3222FD
:10334000691C0748FEF77AFF0198012806D1124947
:1033500000070860BFF34F8FBFF36F8F7CBD000085
:10336000C40300201003002094040020200000204B
:10337000553252785F517565756548616E646C654C
:103380002053656E6446726F6D49535220466169E1
:103390006C6564210D0A000004ED00E0FEE700000A
:1033A00032220C490C48FEF749FF0C4C0021206AE0
:1033B00001F0E8F90A4D4FF0FF3632460849206A1D
:1033C00001F05CFB2978681CFFF72CFA0A2000F05A
:1033D0000EF9F2E711030020C403002000000020D2
:1033E0007C0100200907090E002804DB00F1E02021
:1033F00080F80014704700F00F0000F1E02080F822
:10340000141D704730380A2801D20120704700206F
:10341000704770472DE9F04706460F460025002407
:103420004FF4487940F2EE2836F8140048450CD3A2
:10343000A0F5487001F059FE00220D4B01F06CFE22
:1034400001F024FE47F8240002E0002047F82400A1
:1034500036F81400404503D20120A040284385B22D
:10346000641CE4B2092CDFD32846BDE8F0870000D5
:103470000000FE3FF0B593B0044614210EA8FCF7FF
:103480004CFF142109A8FCF748FF24216846FCF7EB
:1034900044FF00210EAD09A834F8112025F81120B1
:1034A00034F8112020F81120491CC9B20929F3D39E
:1034B00000236E46002103EBC30204EB420C3CF8F0
:1034C000112056F82170174446F8217030F8117019
:1034D000974201D920F8112035F81170974201D296
:1034E00025F81120491CC9B20929E8D35B1CDBB2BD
:1034F000042BDFD3002156F8212035F81130D21AE1
:1035000030F81130D21A46F8212004EB410352085A
:103510005A82491CC9B20929EDD313B0F0BD00008D
:103520002DE9F04F8BB08246DFF87090242101A87E
:10353000FCF7F3FE00240DF1040BDFF864804FF07C
:103540007E50494602F048F80A900AEB4406708A19
:1035500000EB800047004BF8247058F8240001F07D
:103560005BFF01460A9801F06BFF0546384601F003
:1035700053FF494601F064FF294601F0CBFE01F0FC
:103580002BFF48F824000A21B0FBF1F0B084641C42
:10359000E4B2092CD9D30BB0BDE8F08F9A99193F4A
:1035A000883A002004490A685206FCD5024AC1B292
:1035B000121D11607047000000380140FDF70EFC3D
:1035C000FFF76FFBFEF7CEFFFEF7DCFEFFF736F8E6
:1035D000FFF78AF8FFF7A4F8FFF754F8FFF718F899
:1035E00000F014F8FEF70CFF00F024F8FEE710B529
:1035F000EFF30581002902D06FF0050403E00024F9
:1036000008B100F0F3FE204610BD0000EFF3058086
:10361000002802D06FF0050070470548016811B11D
:103620004FF0FF307047012101600020704700001B
:103630009800002010B5EFF30580002802D06FF04D
:10364000050010BD07480168012902D04FF0FF3086
:1036500010BD054A002111700221016000F034FF05
:10366000002010BD980000201FED00E0F8B51446C2
:103670004FF00005EFF30582002A33D190B389B3F0
:10368000521EB4B1A3685BB1E668542E08D3266914
:1036900036B1676900FB01F6B74201D3012209E0A8
:1036A00043B9E36833B9236923B9636913B90022C5
:1036B00000E00022012A01D042B10BE0002200927A
:1036C000A368226901F027F8054603E0002201F013
:1036D00000F8054635B10CB1216800E0002128460C
:1036E00000F04EFE2846F8BD2DE9FF470B464FF08F
:1036F0000008CDF80C80EFF3058199BB90B38026CC
:1037000018240025691E72B3176807B13D469769F2
:1037100007B13C46671E382F02D21779FF0703D046
:10372000002004B0BDE8F087576907B1BE08D2F8A1
:1037300008C0BCF1000F0CD0D2F80C90B9F15C0FAE
:1037400007D3D2F81090B9F1000F02D00FB10121C8
:103750000BE0BCF1000F08D1D76837B9176927B95A
:10376000002102E01BE0FFE70021012901D059B14F
:1037700015E0916812690291CDE90042324629466E
:1037800001F094FA03900AE003A9CDE90041B2B236
:10379000294601F059FA012801D0CDF80C80039890
:1037A000BFE700002DE9F04104460F46134EF568CF
:1037B0003068001D00F0E4FC601C07D137B13168AF
:1037C000BDE8F041091D0E4800F02ABD2C443068C8
:1037D0004460AC4206D23168B06B091DBDE8F041CF
:1037E00000F006BD3168706B091D00F001FDB06A84
:1037F000844200D2B462BDE8F0810000480000209D
:10380000540A002070B5044600F016FD1C4DA8684F
:10381000401CA860286810B1686938B10CE02C60C1
:10382000A868012808D100F09BF905E02868E16A42
:10383000C06A884200D82C60686A401C6862606474
:10384000E06A2969884200D928610E4900EB8000AE
:1038500001EB8000211D00F0E3FC00F00DFD686924
:1038600000280CD02868E16AC06A884207D206495D
:103870004FF080500860BFF34F8FBFF36F8F70BD64
:1038800048000020A405002004ED00E038B500F059
:10389000D3FC104C2068C8B90F4800F09BFC0E48C0
:1038A000143000F097FC0C48E060143020610A4BA3
:1038B0000020F43B009003F1540210210A2000F094
:1038C0002AFF206010B105A100F05AFDBDE8384084
:1038D00000F0D2BC840000205C0B0020546D7251BB
:1038E0000000000070B50C4D0C4E11E000F0A4FC7F
:1038F000F068C468201D00F043FCA868401EA86062
:103900006868401E686000F0B7FC204600F053F87D
:1039100068680028EAD170BD48000020400A0020F5
:1039200030B40B46026C002A0CD0C1681144C1604F
:103930008468A14201D30168C160C16830BC1846E7
:10394000FCF79EBC30BC70472DE9F0410446174699
:103950000026A56B226C002A10D0C7B1E068FCF7E6
:103960008FFCE168206C091AE1602268914202D262
:10397000A168081AE060022F16D017E02068A8B9E5
:10398000A06801F03BFA06460020A0600EE06068E7
:10399000FCF776FC216C606808446060A16888428E
:1039A00004D32068606001E005B16D1E6D1CA56345
:1039B0003046BDE8F08110B5044694F8590000285F
:1039C0000BD0012811D0022814D0502080F3118888
:1039D000BFF34F8FBFF36F8FFEE7206B00F062FCE9
:1039E0002046BDE8104000F05DBC2046BDE8104018
:1039F00000F058BC10BD00000749CA6811680029D2
:103A000004D00021016019B1002070470121F9E7BD
:103A1000D068006870470000840000204FF42051F7
:103A20000F48420706D0C01D20F007000C49411A7C
:103A3000C1F520510B4A106000235360014408393E
:103A400021F00701183A11604B600B600B1A4360BC
:103A500001604068906050604FF0004050617047D6
:103A60003C120020B4000020074E4FF08054074D58
:103A7000FFF738FF30680128FAD92C60BFF34F8F69
:103A8000BFF36F8FF4E70000A405002004ED00E011
:103A900070B51D46049C00290BD02260E0632164B0
:103AA0000121204600F06EFE84F850500020A064F2
:103AB00070BD2460F2E72DE9F05F8246DDE90A5926
:103AC0000C9C0E4617469B46B900A522206BFCF7BE
:103AD0001CFC206B7F1E00EB870020F00707780797
:103AE00007D0502080F31188BFF34F8FBFF36F8F43
:103AF000FEE74FF0000866B100202218315C82F822
:103B00003410315C11B1401C1028F6D384F8438086
:103B100001E084F83480382D00D33725E562E56470
:103B2000C4F85080201D00F060FB04F1180000F084
:103B30005CFB2461C5F13800A0616462C4F8548064
:103B400084F858805A465146384600F0E7FA20601B
:103B5000B9F1000F01D0C9F80040BDE8F09F0000A6
:103B600070B50024114D04EB840005EB800000F0DB
:103B700031FB641C382CF6D30D4800F02BFB0C48AD
:103B8000143000F027FB0A48283000F023FB0848D7
:103B90003C3000F01FFB0648503000F01BFB05488E
:103BA000034941631431816370BD0000A405002006
:103BB000040A00204800002030B5134900E01146F7
:103BC0000A688242FBD34B685C18844203D1406888
:103BD0001844486008460D6844682318AB420DD16C
:103BE000094B183B1B689A4206D052682244426037
:103BF0000A681268026002E0036000E0026081422D
:103C000000D0086030BD0000B400002070B5002472
:103C1000416000610C4D91420AD8D11A82699142EB
:103C200001D301240EE0011D286900F0E1FA09E04A
:103C30009A4203D2994201D3012403E0011DE868AE
:103C400000F0D6FA204670BD8400002010B504466E
:103C500000F0F2FAA06B20B1002400F00DFB20462A
:103C600010BD0124F9E710B5044600F0E5FAA06B99
:103C7000E16B884201D1012400E0002400F0FCFA4D
:103C8000204610BDF1B50098846C0026002C0BD0A6
:103C9000A16BE06B81420FD3502080F31188BFF3FA
:103CA0004F8FBFF36F8FFEE7502080F31188BFF373
:103CB0004F8FBFF36F8FFEE7A16B81420CD294F957
:103CC0004550002269462046FFF73EFE0646681C26
:103CD00004D06D1C84F845503046F8BD606A002859
:103CE000FAD004F1240001F0C7F80028F4D001262E
:103CF000F2E70000F8B505460E461748C068C068F0
:103D0000C468201D00F03CFA94F82800410718D53B
:103D1000A0692B46411932462046FFF777FFA0B134
:103D200000200346014600902A46204601F078F91B
:103D300058B9502080F31188BFF34F8FBFF36F8FB6
:103D4000FEE720F0010084F82800216A01B0204637
:103D5000BDE8F040084700008400002030B587B07F
:103D60003C4D6EE00398002803DADDE90420069953
:103D700090470398002864DB059C606910B1201D02
:103D800000F0FEF902A800F0AFF8024603980A28F6
:103D900057D2DFE800F00505052D334A05052D3320
:103DA00094F8280040F0010084F828000498A169E4
:103DB000034601442046FFF729FF68B3216A2046E5
:103DC000884794F8280040073BD5002000900498CD
:103DD000A169002342181946204601F021F9D8B9FB
:103DE000502080F31188BFF34F8FBFF36F8FFEE732
:103DF00014F8280F20F00100207022E094F8280029
:103E000040F0010084F828000498A06128B18118CE
:103E100013462046FFF7FAFE13E0502080F3118886
:103E2000BFF34F8FBFF36F8FFEE794F82800810731
:103E300003D4204600F036FA03E020F0010084F8B5
:103E40002800002203A9286800F018FE002889D164
:103E500007B030BD84000020F8B506460D4600F0DE
:103E60007BFB684600F040F80446009810B101F072
:103E70003FF8F8BD45B9A64206D801F039F8214609
:103E80003046FFF737FFF8BD0C481DB101690968DE
:103E900091B10025311B2A46006800F083FA01F039
:103EA00027F80028EFD106494FF080500860BFF393
:103EB0004F8FBFF36F8FF8BD0125EBE78400002023
:103EC00004ED00E00748416B0968002905D0416B0B
:103ED000C968C9684968816270474FF0FF318162E3
:103EE000704700004800002070B5054600F01AFF3A
:103EF0000446074EB068844204D200F00BF801205B
:103F0000286001E000202860B460204670BD0000F9
:103F100084000020F8B51A4E20E0C0680568C46827
:103F2000201D00F02DF9216A2046884794F82800CA
:103F3000400713D5A0692844A84206D960602461CF
:103F4000211DF06800F054F908E000200346014606
:103F500000902A46204601F063F840B1F0680168FD
:103F60000029DAD1F0683169F1603061F8BD502084
:103F700080F31188BFF34F8FBFF36F8FFEE7000010
:103F80008400002009484068401C07D0502080F37E
:103F90001188BFF34F8FBFF36F8FFEE7502080F380
:103FA0001188BFF34F8FBFF36F8FFEE7BC00002077
:103FB00008B56846FFF720FD0099FFF74DFFFFF7B2
:103FC000CDFEF6E72DE9F041044600F035F994F90D
:103FD000455004F1240612E0A06C30B12046FFF7F2
:103FE00051FE50B100F032FA07E0606A48B1304645
:103FF00000F042FF08B100F029FA6D1E6DB2002DED
:10400000EADC4FF0FF3684F8456000F035F900F047
:1040100013F994F9445004F1100709E0206948B1FC
:10402000384600F029FF08B100F010FA6D1E6DB29D
:10403000002DF3DC84F84460BDE8F04100F01CB9C9
:104040002DE9F0410546002600F086FA324F386827
:1040500008B9FFF7E3FC786905424DD18DB1083509
:1040600068070ED005F00700C0F108000544680796
:1040700007D0502080F31188BFF34F8FBFF36F8FAD
:10408000FEE7CDB37868854236D823491831084613
:10409000046801E0214604466068A84202D2206814
:1040A0000028F7D13868844226D00E680836206888
:1040B00008606068411B10290ED96019420707D0BB
:1040C000502080F31188BFF34F8FBFF36F8FFEE74F
:1040D00041606560FFF770FD61687868401A78603C
:1040E000BA68904200D2B8607869014361600020EC
:1040F0002060F868401CF86000F0FAFE700707D0F6
:10410000502080F31188BFF34F8FBFF36F8FFEE70E
:104110003046BDE8F08100009C00002020384FF0C0
:104120008073C36121F0010181610249416140F85E
:1041300020297047853F000810B50022102104484F
:10414000FCF701FEBDE810400248FDF7B1BC0000DD
:1041500000080140C402002010B5012210210548CA
:10416000FCF7F1FD0448FDF7D5FC04490020486048
:1041700010BD000000080140C4020020CC00002057
:104180000169D0E901329A60D0E901235A604A6896
:10419000824201D182684A60002202610868401EA2
:1041A0000860086870470000034B036003F15C007F
:1041B0000860802010607047840B0020044B03606F
:1041C00003F15C0008604FF48070106070470000DD
:1041D000E00D002000F1080141604FF0FF328260E5
:1041E000C1600161002101607047002101617047D9
:1041F00030B50C68621C02D000F1080202E00269CE
:1042000004E01A4653681D68A542FAD953684B600A
:1042100099608A60516008610168491C016030BD85
:1042200042684A6093688B60936859609160086146
:104230000168491C01607047502080F31188BFF36A
:104240004F8FBFF36F8F0A494868401C48600128B0
:104250000CD10848006810F0FF0F07D0502080F301
:104260001188BFF34F8FBFF36F8FFEE770470000D9
:10427000BC00002004ED00E009494868002806D091
:10428000401E4860002801D180F3118870475020FB
:1042900080F31188BFF34F8FBFF36F8FFEE70000ED
:1042A000BC00002070B500282AD008380446154DFF
:1042B00060686969084207D1502080F31188BFF314
:1042C0004F8FBFF36F8FFEE722683AB1502080F323
:1042D0001188BFF34F8FBFF36F8FFEE78843606095
:1042E00000F03AF960686968084468602046FFF7A2
:1042F00063FC2869401C2861BDE8704000F0F8BDEF
:1043000070BD00009C0000204FF0E0200021016102
:10431000816105494FF47A720968B1FBF2F1491ED7
:1043200041610721016170474400002010B5FBF78F
:1043300075FF114910280ED300F1E02090F8F0032A
:104340000A78904207D2502080F31188BFF34F8F34
:10435000BFF36F8FFEE709480068896800F4E060EA
:10436000884207D9502080F31188BFF34F8FBFF3E5
:104370006F8FFEE710BD0000BC0000200CED00E0D8
:1043800010B50022064B53F832401CB1521C082ACB
:10439000F9D310BD43F8321003EBC201486010BDE1
:1043A0006405002070B504460D461646FFF744FF2D
:1043B00094F944304FF000005B1C01D184F84400B4
:1043C00094F94510491C01D184F84500FFF754FFCA
:1043D000A06B28B93246294604F1240000F056F8B3
:1043E0002046BDE87040FFF7EDBD000010B5024665
:1043F0000020002A12D00F48006B38B1502080F303
:104400001188BFF34F8FBFF36F8FFEE700F0A4F862
:1044100000211046FFF7C6F900F06AFD002807D119
:1044200005494FF080500860BFF34F8FBFF36F8F87
:1044300010BD00004800002004ED00E002490A6AB7
:104440000260C968416070474800002001490120AE
:10445000C86170474800002010B50C4600280AD0FB
:10446000094909681831FFF7C3FE2046BDE810402E
:104470000121FFF797B9502080F31188BFF34F8FC8
:10448000BFF36F8FFEE700004800002070B50D46B7
:10449000144600280DD00B4909681831FFF7C0FEFB
:1044A0000CB14FF0FF3521462846BDE87040FFF7BC
:1044B00079B9502080F31188BFF34F8FBFF36F8F0E
:1044C000FEE700004800002030B587B000250695C3
:1044D000059504AA05A906A8FFF766FEDDE9051003
:1044E000CDE900510290002317A11948049A00F069
:1044F000DDFB184CE06208B1012000E0002001283B
:1045000001D100F059FD012809D0401C19D15020DB
:1045100080F31188BFF34F8FBFF36F8FFEE75020FA
:1045200080F31188BFF34F8FBFF36F8F4FF0FF30D1
:10453000A06201206061E56007B0BDE8304000F096
:1045400047B807B030BD000049444C4500000000AA
:10455000693A0008480000200248016B491C0163C9
:10456000704700004800002010B5174B186B00285A
:1045700002D00120D86110BD0020D861186913490C
:1045800001E0C0B1401E00EB800251F82220002A59
:10459000F7D000EB800201EB82014A6852684A6062
:1045A00001F10804A24201D152684A604968C96811
:1045B0001960186110BD502080F31188BFF34F8F30
:1045C000BFF36F8FFEE7000048000020A405002025
:1045D0001CB5264908780190FF20087008780090E3
:1045E0009DF800009DF8002000F0F000904207D0F8
:1045F000502080F31188BFF34F8FBFF36F8FFEE71A
:104600009DF800001A4C00F0500020700720A060B8
:1046100006E0A068401EA0609DF8000040000090E9
:104620009DF800000006F4D4A068032807D05020AD
:1046300080F31188BFF34F8FBFF36F8FFEE74FF406
:104640004070A060019808700A48016841F4700148
:104650000160016841F070410160FFF755FE0020E4
:104660006060FBF7A5FD00201CBD000000E400E039
:10467000BC00002020ED00E010B5502080F3118830
:10468000BFF34F8FBFF36F8F00F052FB18B1044997
:104690004FF080500860002080F3118810BD0000AA
:1046A00004ED00E070B504460D46FFF7C5FDA06CB3
:1046B00008B1002405E0A06B08B1002401E0A56466
:1046C0000124FFF7D9FD204670BD00220421AFF37D
:1046D0000080F8B505460E461746002D13D005FBA1
:1046E00006F05430FFF7ACFC044654B12246543275
:1046F000002084F846003B46314628460094FFF7E8
:10470000C7F92046F8BD502080F31188BFF34F8FC2
:10471000BFF36F8FFEE738B5049D002804D05BB16E
:1047200002B189B1C2B120E0502080F31188BFF3FB
:104730004F8FBFF36F8FFEE7502080F31188BFF3D8
:104740004F8FBFF36F8FFEE7502080F31188BFF3C8
:104750004F8FBFF36F8FFEE739B1502080F3118880
:10476000BFF34F8FBFF36F8FFEE7542400941C46B6
:10477000012384F846302B460094FFF789F9204640
:1047800038BD000070B504460D46002C25D0FFF75B
:1047900053FDD4E90F20216802FB0011A160002124
:1047A000A16321686160E06B2268216C401E00FB00
:1047B0000121E1604FF0FF3084F8440084F84500A7
:1047C00004F110008DB1FFF705FD04F12400FFF79F
:1047D00001FDFFF751FD012070BD502080F31188CD
:1047E000BFF34F8FBFF36F8FFEE721690029F0D031
:1047F00000F042FB0028ECD004494FF080500860E4
:10480000BFF34F8FBFF36F8FE3E7000004ED00E0CD
:104810002DE9FF4782B004468A461E460025002C3B
:1048200003D0BAF1000F08D011E0502080F31188B6
:10483000BFF34F8FBFF36F8FFEE7206C38B150206E
:1048400080F31188BFF34F8FBFF36F8FFEE7022E07
:104850000AD1E06B012807D0502080F31188BFF304
:104860004F8FBFF36F8FFEE700F04EFA48B9049800
:1048700038B1502080F31188BFF34F8FBFF36F8F93
:10488000FEE74FF000094FF08057DFF80C81FFF78B
:10489000D3FCA06BE16B884205D3022E03D00498B1
:1048A00090B395B33AE0A56B324651462046FFF7E8
:1048B0004BF8A16C69B1022E00D1FDB92046FFF77B
:1048C000E1F9D8B1C8F80070BFF34F8FBFF36F8F15
:1048D00014E0616A59B104F1240000F0CDFA68B126
:1048E000C8F80070BFF34F8FBFF36F8F06E028B199
:1048F000C8F80070BFF34F8FBFF36F8FFFF7BCFC9A
:10490000012006B0BDE8F08700E003E0FFF7B4FC4B
:104910000020F6E76846FFF791FD0125FFF7ACFCA4
:10492000FFF71AFEFFF788FC94F94400401C01D100
:1049300084F8449094F94500401C01D184F84590D6
:10494000FFF79AFC04A9684600F040F930B1204610
:10495000FFF738FB00F0CCFA0020D2E72046FFF743
:1049600082F990B104F110000499FFF775FD20461B
:10497000FFF728FB00F0BCFA002888D1C8F80070C7
:10498000BFF34F8FBFF36F8F81E72046FFF71AFB0E
:1049900000F0AEFA7BE7000004ED00E02DE9F047FF
:1049A00004468A4615461F46002C03D0BAF1000F74
:1049B00008D011E0502080F31188BFF34F8FBFF370
:1049C0006F8FFEE7206C38B1502080F31188BFF361
:1049D0004F8FBFF36F8FFEE7022F0AD1E06B0128E4
:1049E00007D0502080F31188BFF34F8FBFF36F8F34
:1049F000FEE7FFF79BFC5020EFF3118880F311884E
:104A0000BFF34F8FBFF36F8FA06BE16B884206D36C
:104A1000022F04D0002088F31188BDE8F08794F9B4
:104A20004560D4F838903A4651462046FEF78CFF50
:104A3000701C04D0761C84F845600120EBE7A06C64
:104A4000012668B1022F02D1B9F1000FF5D120463D
:104A5000FFF718F90028F0D0002DEED02E60ECE71B
:104A6000606A0028E9D004F1240000F005FA00286B
:104A7000E3D0002DE1D02E60DFE700002DE9F747FD
:104A800083B004468A460026002C03D0BAF1000FFA
:104A900008D011E0502080F31188BFF34F8FBFF38F
:104AA0006F8FFEE7206C38B1502080F31188BFF380
:104AB0004F8FBFF36F8FFEE700F026F948B90598D6
:104AC00038B1502080F31188BFF34F8FBFF36F8F41
:104AD000FEE700274FF08058DFF8D890FFF7ACFBD7
:104AE000A56BC5B151462046FEF71AFF6D1EA563A2
:104AF000206950B104F1100000F0BEF928B1C9F8E6
:104B00000080BFF34F8FBFF36F8FFFF7B5FB01201E
:104B100006B0BDE8F087059808B126B107E0FFF7B9
:104B2000ABFB0020F4E701A8FFF788FC0126FFF7A4
:104B3000A3FBFFF711FDFFF77FFB94F94400401C36
:104B400001D184F8447094F94500401C01D184F8E7
:104B50004570FFF791FB05A901A800F037F858B19F
:104B60002046FFF72FFA00F0C3F92046FFF76EF852
:104B70000028B3D00020CBE72046FFF767F890B1BC
:104B800004F124000599FFF767FC2046FFF71AFAA5
:104B900000F0AEF90028A1D1C9F80080BFF34F8F13
:104BA000BFF36F8F9AE72046FFF70CFA00F0A0F9E9
:104BB00094E7000004ED00E008B5002300930A46E6
:104BC0006946FFF75BFF009808BD00002DE9F04142
:104BD00005460C46002D11D0C4B1FFF72DFB194E30
:104BE000F0686B68C11A2268571C17D02F68366AA4
:104BF000B74215D0834213D801241DE0502080F322
:104C00001188BFF34F8FBFF36F8FFEE7502080F303
:104C10001188BFF34F8FBFF36F8FFEE700240BE0C7
:104C20008A4206D9501A20602846FFF707FC002464
:104C300002E0002020600124FFF71EFB2046BDE8B3
:104C4000F0810000480000202DE9FF5F8146DDE98A
:104C50000E788A4616469B46B000FFF7F1F90546E6
:104C600028000AD05C20FFF7EBF904460CB125635D
:104C700004E02846FFF716FB00E000249CB100206A
:104C800084F85900CDE90240CDE900785B46324610
:104C900051464846FEF70FFF2046FEF7B3FD0120C0
:104CA00004B0BDE8F09F4FF0FF30F9E7F0B585B0F4
:104CB0000746DDE90A600C9C002815D0E4B15C25AC
:104CC00003952063022084F85900002004ADCDE94B
:104CD0000240CDE900653846FEF7EDFE2046FEF7BE
:104CE00091FD049805B0F0BD502080F31188BFF30A
:104CF0004F8FBFF36F8FFEE7502080F31188BFF313
:104D00004F8FBFF36F8FFEE705484169002903D03D
:104D1000006B18B1002070470120704702207047D7
:104D2000480000200148C06870470000480000208B
:104D30002DE9F04100262F4F386B002805D0B869C7
:104D4000401CB8613046BDE8F081FD686D1CFD6017
:104D50009DB9786B006838B1502080F31188BFF39B
:104D60004F8FBFF36F8FFEE7786BB96B7963B863D2
:104D7000386A401C3862FFF7A5F8B86ADFF8788017
:104D800085420DD3786B006838B1786BC068C46811
:104D90006068854212D2B86202E04FF0FF30B8621C
:104DA0003868C06A00EB800058F82000012800D95C
:104DB0000126F8690028C5D00126C3E7201DFFF7AA
:104DC000DFF9A06A18B104F11800FFF7D9F9E06A19
:104DD0003969884200D9386100EB800008EB800017
:104DE000211DFFF71DFAE06A3968C96A8842C9D3F4
:104DF0000126C7E748000020A405002070B504463E
:104E00000020002C2BD01A4D29688C4207D050204E
:104E100080F31188BFF34F8FBFF36F8FFEE7216DD3
:104E2000F1B1491E2165E36CE26A9A4217D000296C
:104E300015D1201DFFF7A4F9E06CE062C0F1380045
:104E4000A061E06A2969884200D92861094900EB1C
:104E5000800001EB8000211DFFF7E2F9012070BD09
:104E6000502080F31188BFF34F8FBFF36F8FFEE7A1
:104E700048000020A405002070B5C068C468002C5C
:104E800014D004F118000646FFF77AF9154D2A6B85
:104E9000A2B131461448FFF7C3F9E06A2968C96A2C
:104EA00088421CD901200121E96170BD502080F3A6
:104EB0001188BFF34F8FBFF36F8FFEE7201DFFF701
:104EC0005FF9E06A2969884200D92861074900EB47
:104ED000800001EB8000211DFFF7A2F9DDE7002033
:104EE00070BD0000480000202C0A0020A40500200E
:104EF0002DE9F041002400272B4D286B002807D016
:104F0000FFF79AF9286B401E2863286B40B146E0F2
:104F1000502080F31188BFF34F8FBFF36F8FFEE7F0
:104F2000A868E0B3DFF8848001261CE0D8F80C0004
:104F3000C46804F11800FFF723F9201DFFF720F9DA
:104F4000E06A2969884200D92861194900EB80008C
:104F500001EB8000211DFFF763F9E06A2968C96A47
:104F6000884200D3EE61D8F800000028DED10CB1F1
:104F7000FEF7A8FFAC6944B1FFF7DAFE00B1EE61BD
:104F8000641E002CF8D10020A861E86938B101271F
:104F9000084938070860BFF34F8FBFF36F8FFFF7E3
:104FA0006BF93846BDE8F081480000202C0A00204B
:104FB000A405002004ED00E030B587B00024FEF722
:104FC00065FC134D2868B0B100200690059004AA36
:104FD00005A906A8FFF7F2F8DDE905100222CDE9E0
:104FE0000021029000230BA10C48049AFFF75EFEFB
:104FF000686000B1012414B107B0204630BD5020D4
:1050000080F31188BFF34F8FBFF36F8FFEE700006F
:1050100084000020546D722053766300B13F000875
:105020002DE9FF4106460A9F9C460020002E15D020
:10503000154D2C68002C0ED0009101920296062985
:105040001BDAFFF761FE022810D000231A466946DA
:105050002868FFF7DDFB04B0BDE8F081502080F345
:105060001188BFF34F8FBFF36F8FFEE700233A46DF
:1050700069462868FFF7CCFBEDE7002362466946E6
:105080002046FFF78BFCE6E7840000204FEA41034F
:105090004FEA5353A3F58063D3F11E03C8BFD3F186
:1050A000210C0CDD4FF0004242EAC12242EA50528C
:1050B00032FA03FC8CEAE17CACEBE1707047102B18
:1050C000C4BF0020704703F5787CBCF1FF3F04D0DB
:1050D0006FF0004282EA2100704770B500F0C6F818
:1050E0004992248000207047F2E710F0004248BF48
:1050F0004042B0FA80F310FA03F10AD0C3F11D0365
:1051000003F580634FEA415002EB035202EBD121D9
:1051100070474FF000007047DFF848C170B51CEAD7
:10512000111E1EBF1CEA13159EEA0C0F95EA0C0F08
:1051300000F06F8081EA030423EA4C134EEAD47E28
:1051400021EA4C1141F4801143F48013AE44A1FBD9
:10515000024CA0FB0365AEF17F7E361955EB0C05C2
:10516000A1FB034C4CF10003A0FB021C16EB0C0648
:10517000654153F10003094218BF46F0010613F4DC
:10518000007F0BD14FEA03314FEA0530340341EA87
:10519000155140EA16506FF003020AE04FEAC321AE
:1051A0004FEAC520F40241EA555140EA56506FF0EB
:1051B000020202EB2E4201EB025585EACE710AD0C3
:1051C0005FEA440C18BF24F0004450F1000041F1A4
:1051D000000120EAD47040F2FE7C624500D270BD2E
:1051E000A84214BF4FF080444FF04044002E08BF47
:1051F0000024BEF1806FA8BFA1F1C041BDE870409E
:1052000080F282804FF0000001F1C04101F00041C6
:1052100070479EEA0C0F0CEA131518BF95EA0C0FA5
:1052200006D04FF0000081EA030E0EF0004170BD81
:1052300000F01CF88900013E00F007B800F009B842
:105240004FEA430C5FEA5C5C08D081EA030100F09E
:105250005BB84FEA410C5FEA5C5CF6D14FF00000AE
:10526000014970470000FF070000F87F0EF1020EB1
:105270002EF0030E5EF8046B364205D4012A43EB90
:10528000030515F5001F12D8012841EB010C1CF590
:10529000001F0CD80ED14FEAD17C15F5001F0CEB86
:1052A0004C0C0CF1020C08BF4CEBD37C04E04FF02B
:1052B000080C01E04FEAD37C0CEB4C0526FA05F60E
:1052C00006F00706B6F1040C06D20EEB860CBDE81C
:1052D00070404CF0010C6047DFE80CF0090B020253
:1052E0004FF000414FF00000A1F5002170BD1946BC
:1052F0001046012851EB010418BFD4F5001484BFF7
:10530000002001F0004170BD0808A0F500114FEA2F
:105310003101704790EA010F48BF81F0004100F170
:105320006281421A3CBF801A89184FEAD0524FF06E
:105330007F4C1CEA410FA2EBD15318BF9CEA026FCD
:1053400000F03B804FF0004C4CEA00204CEA012179
:1053500021FA03FC10EB0C0C1ED202F1FF325FEAC3
:105360001C2040EBC25038BF70471CF07F0F4FEA43
:10537000400C18BFBCF17F4F38BF7047C3F120030A
:10538000994008BF20F00100BCF17F4F38BF704743
:10539000A0F1C04000F01BB94FEA3C00000A40EB0E
:1053A000C25028BF1CF0FF0F4FEA400CE6D018BFD8
:1053B000BCF17F4F38BF7047EAE79CEA026F05D027
:1053C00010EA5C0F08BF00F00040704710B500F015
:1053D000B8F800BF64FBBE3EC10DD1F19E0206DBF2
:1053E0004FEA002343F0004323FA02F070470042E3
:1053F00007D54FEA4001B1F1FE4F02D24FF0000055
:10540000704710B500F09DF8499224800020704745
:105410006FEA200070470000B0FA80F310FA03F240
:10542000C3F19D030AD0D90501EB1220530638BF02
:10543000704700F1010008BF20F001007047000034
:105440004FF47F0C1CEAD0121EBF1CEAD11392EA63
:105450000C0F93EA0C0F00F0478090EA010F48BF51
:1054600042F480724FF0004C4CEA00204CEA0121DB
:1054700002EB0302A0FB0113A2F50002002918BFF2
:1054800043F001035B0028BF4FEA330342EB2242A3
:105490005FEA132C4CEBC2502EBFBCEB436FB2F54E
:1054A0007C0F70474FEA036CBCF1004F08BF20F03F
:1054B0000100B2F57C0F38BF70470BD582F0FF02B8
:1054C00012F5803FC8BF704700F1C040D8BF00F060
:1054D0000040704700F5000C5FEA4C0C48BF704775
:1054E000B0F1C04000F073B890EA010F0CEAD1139C
:1054F00048BF42F48072624538BF634504D280EAF7
:10550000010000F00040704710B500F01AF800BF2D
:105510008900013E00F007B800F009B85FEA410CCD
:105520005FEA1C6C08D080EA010000F050B85FEA26
:10553000400C5FEA1C6CF6D14FF00040A0F58000F3
:1055400070470EF1020E2EF0030E5EF8044B24425B
:1055500004D44FEA4102B2F17F4F11D84FEA400321
:10556000B3F17F4F0CD80ED14FEAD07CB2F17F4F10
:105570000CEB4C0C0CF1020C08BF4CEBD17C04E0A2
:105580004FF0080C01E04FEAD17C0CEB4C0324FAFD
:1055900003F404F00704B4F1040C06D20EEB840CFF
:1055A000BDE810404CF0010C6047DFE80CF0070844
:1055B00002024FF00040A0F5800010BD08464200F6
:1055C00018BFD2F1807288BF00F0004010BDFF21EB
:1055D00041EAD050C005704790EA010F48BF81F002
:1055E00000413FF59EAE421A04D882F00042A0EB83
:1055F000020011444FEAD0524FF07F4C1CEA410F99
:10560000A2EBD15318BF9CEA026F4AD04FF0004C76
:105610004CEA00204CEA012121FA03FCB0EB0C0C0F
:105620000FD412F0FE0F36D05FEA4C001DD50012E9
:1056300040EBC25038BF70471CF03F0F18BF704797
:105640000BE0A2F101025FEA1C2040EBC25038BF20
:1056500070471CF07F0F18BF7047C3F120039940BB
:1056600014BF401E20F00100704780084FEA12234B
:1056700008BF7047B0FA80FCA2EB0C02CCF1280CFA
:1056800060FA0CF093EA122F04BF00EBC25070478F
:105690004FEAC3707047130A5FEADC1008BF704717
:1056A000F6E79CEA026F04D010EA5C0F08BF002006
:1056B000704710B5FFF745FF40DFF63E81F0004030
:1056C00070470000AC5A0008000000000000000015
:1056D00000000000000000000002000018000000B0
:1056E00000000000000000007C5A000800000000DC
:1056F00000000000000000000000000000020000A8
:10570000080000000000000000000000845A0008AB
:105710000000000000000000000000000000000089
:10572000000400001800000000000000000000005D
:105730009C5A00080000000000000000000000006B
:10574000000000000002000008000000000000004F
:1057500000000000B85A000800000000000000002F
:10576000000000000000000000040000080000002D
:105770000000000000000000905A00080000000037
:105780000000000000000000000000000004000015
:10579000180000000000000000000000385A000857
:1057A00000000000000000000000000000000000F9
:1057B00000000000585A000800000000000000002F
:1057C000000000000000000000000000445A000833
:1057D00000000000000000000000000000000000C9
:1057E00000000000645A00080000000000000000F3
:1057F00000000000000000000000000001020203A1
:105800000405060708090A0B0C0D0E0F1010000006
:105810000000000000000102030406070809000060
:1058200000000102030400C1814001C0804101C0A9
:10583000804100C1814001C0804100C1814000C160
:10584000814001C0804101C0804100C1814000C150
:10585000814001C0804100C1814001C0804101C040
:10586000804100C1814001C0804100C1814000C130
:10587000814001C0804100C1814001C0804101C020
:10588000804100C1814000C1814001C0804101C010
:10589000804100C1814001C0804100C1814000C100
:1058A000814001C0804101C0804100C1814000C1F0
:1058B000814001C0804100C1814001C0804101C0E0
:1058C000804100C1814000C1814001C0804101C0D0
:1058D000804100C1814001C0804100C1814000C1C0
:1058E000814001C0804100C1814001C0804101C0B0
:1058F000804100C1814001C0804100C1814000C1A0
:10590000814001C0804101C0804100C1814000C18F
:10591000814001C0804100C1814001C0804101C07F
:10592000804100C1814000C0C101C30302C2C6065C
:1059300007C705C5C404CC0C0DCD0FCFCE0E0ACAC7
:10594000CB0BC90908C8D81819D91BDBDA1A1EDE17
:10595000DF1FDD1D1CDC14D4D515D71716D6D212C7
:1059600013D311D1D010F03031F133F3F23236F6D7
:10597000F737F53534F43CFCFD3DFF3F3EFEFA3A87
:105980003BFB39F9F83828E8E929EB2B2AEAEE2E17
:105990002FEF2DEDEC2CE42425E527E7E62622E287
:1059A000E323E12120E0A06061A163A3A26266A6D7
:1059B000A767A56564A46CACAD6DAF6F6EAEAA6A47
:1059C0006BAB69A9A86878B8B979BB7B7ABABE7E97
:1059D0007FBF7DBDBC7CB47475B577B7B67672B247
:1059E000B373B17170B050909151935352929656D7
:1059F0005797559594549C5C5D9D5F9F9E5E5A9A07
:105A00009B5B99595898884849894B8B8A4A4E8E96
:105A10008F4F8D4D4C8C4484854587474686824206
:105A20004383418180400400000800000000000022
:105A300000020001000010004144435F517565758C
:105A4000650000004D6F646275734F6E6552656747
:105A50005F51756575650000553252785F51756507
:105A600075650000416E616C6F67496E70757444B6
:105A700061746151756575650000000052554E54A2
:105A800061736B00414443526561645461736B0000
:105A9000486F6C645265675461736B0049574447A3
:105AA000526566726573685461736B006465666104
:105AB000756C745461736B005573617274325478F1
:105AC00052785461736B0000E85A0008000000200F
:105AD0000801000028010008F05B00080801002010
